:020000040800F2
:1000000000200020D50100085105000869050008FE
:10001000630500085D0500085705000800000000A2
:10002000000000000000000000000000270500089C
:100030002B0500080000000029050008D301000876
:10004000D1010008D1010008D1010008D101000848
:10005000D1010008D1010008D1010008D101000838
:10006000D1010008D1010008D1010008D101000828
:10007000D1010008D1010008D1010008D101000818
:10008000D1010008D1010008D101000800000000E2
:10009000000000000000000000000000D101000886
:1000A000D1010008D1010008D1010008D1010008E8
:1000B000D1010008D1010008D1010008D1010008D8
:1000C000D1010008D1010008D1010008D1010008C8
:1000D000D1010008D1010008D1010008D1010008B8
:1000E000D1010008D1010008D10100080000000082
:1000F0000000000000000000000000000000000000
:1001000000000000000000000000000000000000EF
:100110000000000000000000D1010008D10100082B
:1001200000000000000000000000000000000000CF
:1001300000000000000000000000000000000000BF
:1001400000000000000000000000000000000000AF
:10015000000000000000000000000000000000009F
:10016000000000000000000000000000000000008F
:10017000000000000000000000000000000000007F
:10018000000000000000000000000000000000006F
:10019000000000000000000000000000000000005F
:1001A000000000000000000000000000000000004F
:1001B000000000000000000000000000000000003F
:1001C0000000000000000000000000005FF808F1DF
:1001D000FEE77047A0480047FEE7FEE7FEE7874CD2
:1001E00083B5236843F0010323606268844B1340A6
:1001F0006360236823F0847323F4803323602368CF
:1002000023F480232360636823F4FE0363604FF4C8
:100210001F03A3600023E36200930193236843F468
:1002200080332360236803F400330193009B013380
:100230000093019B1BB9009BB3F5A06FF2D123681B
:1002400013F4003318BF01230193019B012B636852
:1002500063606368636063686360636823F47C134E
:100260006360636843F4981363601DD1236843F0AF
:10027000807323602268614B9601FBD55A6822F097
:1002800003025A605A6842F002025A60636803F03F
:100290000C03082BFAD15B4B4FF000629A605A4A6C
:1002A0009A605A4A5A4B19E0636823F480336360BA
:1002B000236843F0807323602268504B9501FBD57F
:1002C0005A6822F003025A605A6842F002025A60E9
:1002D000636803F00C03082BFAD1DCE74D498B422D
:1002E00004D252F8041F43F8041BF7E74A4B4B4A69
:1002F000934203D2002243F8042BF8E763683F4996
:1003000003F00C03042B464A01D0082B01D0454BC7
:1003100010E04B684868C3F38343C00341BFC96A18
:10032000404801F00F0101314CBFB0FBF1F13E49F3
:1003300002334B43136063683C49C3F30313C95C46
:1003400013683B4DCB4013603A4B00261F46ED1A15
:10035000AD10B54204DD57F8263098470136F8E76E
:10036000354B364D1F46ED1AAD100026B54204DD63
:1003700057F8263098470136F8E700F009F9304D74
:10038000AE88864227D1A36943F00803A3612D4BB1
:100390009B681A0427D52B789B0724D42A4A2B4B19
:1003A00011680B40B3F1005F05D1294B1B6812683F
:1003B00082F308889847002000F0FCFBBFF34F8FC2
:1003C0001049244BCA6802F4E0621343CB60BFF3C8
:1003D0004F8F00BFFDE708220021284600F0B7FC40
:1003E00000F0ECF8CFE72B786FF341032B7000F0AF
:1003F000E5F8012000F0DEFBD0E700BF001002406E
:100400000000FFF800ED00E000000008D40E000836
:10041000080000203800002038000020440400209C
:100420002400002000127A0000093D001000002086
:10043000840400088404000884040008840400087C
:1004400000000020000C0140003000080000FE2FDA
:0C045000043000080400FA05DF01000879
:10045C00D80E00080800002038000020D80E000834
:10046C0000000000000000003800002044040020C0
:08047C00000000000000000078
:1004840010B51349013913D0124B1A8802F0200217
:1004940092B282B9104B1C88A40610D40F4C238846
:1004A40003F020039BB273B9002AEBD0184610BDA9
:1004B4004FF0FF3010BD9B8801220370EAE79B8850
:1004C40001220370EAE7A3880370002010BD00BF77
:1004D4000100100000480040003801400044004082
:1004E400084A094B09499080988088801188090638
:1004F400FCD51A881206FCD5044B1B881B06FBD5B9
:10050400704700BF004800400038014000440040EC
:1005140010B5441E14F8010F10B1FFF7E1FFF9E71D
:1005240010BD704770477047BFF34F8F0549064BA6
:10053400CA6802F4E0621343CB60BFF34F8F00BF7D
:10054400FDE700BF00ED00E00400FA0508B5FFF781
:10055400EBFF08B5FFF7E8FF08B5FFF7E5FF08B5BF
:10056400FFF7E2FF08B5FFF7DFFF41F480714900B0
:100574004000CB0548BF0130C20344BF80F4815022
:1005840080F00100CB03F2D580B2704710B500248F
:100594002346084A98B2115DFFF7E7FF0134042CA3
:1005A4000346F6D10021FFF7E0FFBDE8104000212B
:1005B400FFF7DBBF0000002008B5FFF7E7FF014BA2
:1005C400988008BD00000020CA78F0B5D40648BF62
:1005D4008C780E8802F00F0348BF234316F0FF0FF8
:1005E4001CD0016800240125A54035EA060711D175
:1005F400A7004FF00F0E0EFA07FE21EA0E0103FAD0
:1006040007F7282A41EA070101D1456102E0482A97
:1006140008BF05610134082CE5D10160FF2E1ED905
:100624004168002404F108070125BD4035EA0607A6
:1006340011D1A7004FF00F0E0EFA07FE21EA0E01AA
:1006440003FA07F7282A41EA070101D1456102E0CC
:10065400482A08BF05610134082CE3D14160F0BD8C
:10066400084BDA68D10709D4DA68520708D4DB6882
:1006740013F0100F14BF03200420704701207047AB
:10068400022070470020024010B50446FFF7E8FF3F
:10069400012806D11CB1FFF7E3FF013CF8E7052070
:1006A40010BD002C08BF052010BD00002DE9F04F3F
:1006B4000024A246BF4DC04BADF22C4D2B604FF031
:1006C400000846460DF10B00FFF7DAFE002840F063
:1006D40093819DF80B30042B48D007D8012B1DD0F3
:1006E400022B40F089814FF4806919E0412B31D00D
:1006F400612B2FD0182B40F07F810DF10B00FFF7F9
:10070400BFFE0746002840F077819DF80B30182B78
:1007140040F072810620FFF7E3FE84E14FF0800988
:100724008DF82030012709F10403BB4209DB08AB33
:10073400D819FFF7A5FE002840F05E810137BFB24B
:10074400F1E79DF822309DF82120DB43DBB29A4289
:1007540009D051E11820FFF7C3FE1820FFF7C0FEAF
:100764006FF002075FE1B9F1000F03D10620FFF734
:10077400B7FEA4E7F3B29A4203D01520FFF7B0FE08
:1007840037E1002E40F0C3809DF82330002B00F0A9
:10079400B9800DF1230349A918785A1C18B18A426B
:1007A40001D01346F8E7002213F8010F04A920280A
:1007B40004D0102A02D088540132F5E700238B5468
:1007C4000A78302A2ED14A7802F0DF02582A29D139
:1007D4008A78002A48D04FF0020E11F80E70002FCC
:1007E40000F01F8127F02002413A052AA7F13000CA
:1007F40003D9C2B2092A00F213811A01C3B2092B28
:1008040001D8034607E0A7F14103052B94BFA7F1E4
:100814003703A7F157030EF1010EBEF10B0F13447A
:10082400DBD121E01A46885C002800F0FA806B28AE
:100834000BD04B2802D10AB19B02F2E000F0DF0793
:100844004D2F04D11AB11B05EBE0002AF4D1A0F11D
:100854003007092F00F2E4800A2707FB0303013263
:100864000B2AA3F13003DED1B4F5E63F08D91820F2
:10087400FFF736FE1820FFF733FE4FF0FF37D2E0C4
:10088400C4F309034FEA94280BB108F101084B4B58
:100894000022C3F800804A4B99461A60D9F800A098
:1008A400C2452AD2DFF824B19BF80030042B24D1AE
:1008B4002B684FF430200093FFF7E6FE0428009BDA
:1008C40014D1404F03EB8A233A694FF4302042F0AD
:1008D40002023A617B613B6943F040033B61FFF7ED
:1008E400D3FE41F6FD733A6913403B610AF10103FB
:1008F4008BF80000C9F80030D0E70620FFF7F0FDC0
:10090400432071E00620FFF7EBFD27468BE0DFF87C
:10091400C0802D4F4A460DF12301404600F00AFAEB
:100924004FF0000BC7F800800097CB455BDA2F68C7
:1009340004F1006202F54052BA4254D9009B0022ED
:10094400D3F800804FF40050D8F800A00392FFF7CA
:100954009BFE042820D11B4A4FF40050116941F03A
:10096400010111611FFA8AF139800192FFF78CFEAF
:100974000428019A0BD1B91C039103994FEA1A4A2E
:10098400A1F800A04FF40050FFF77EFE019A41F653
:10099400FE711069014011613968D8F80020914254
:1009A40018D01820FFF79CFD1820FFF799FD6FF071
:1009B400010738E008000020003000083C00002057
:1009C40040000020002002403800002020000020C9
:1009D400440000203B1D009A2B6008F104031360BF
:1009E4000BF1040BA1E70620FFF77AFD01364FF067
:1009F400010A4FF0000865E6BAF1000F01D008F1D2
:100A04000108B8F1050F07DD1820FFF769FD18206C
:100A1400FFF766FD002706E04320FFF761FD51E67E
:100A240023461C4620E738460DF22C4DBDE8F08FD6
:100A3400F7B50D46574F40013918574ECC690B692D
:100A4400B269234343F0010313433C58B361534B4E
:100A540007449C420CBFB269F2694B6878690BBFCA
:100A640013431343B361F36118238DF807303B8BB1
:100A740001A9ADF8043003238DF80630FFF7A4FD77
:100A840004238DF80730BB8901A9B868ADF8043098
:100A9400FFF79AFD238AEA889BB223F44053134359
:100AA4002382A289A9882B8992B20B43698922F4F3
:100AB400B05222F00C020B4313439BB2A381A38ACE
:100AC400AA899BB223F440731343A3827368324A06
:100AD40003F00C03082B12D153685168C3F383430A
:100AE400C90303F1020041BFD36A2D4A03F00F0387
:100AF40001334CBFB2FBF3F32A4B434300E0284BD2
:100B04007268294FC2F30312B85C7268C340C2F31F
:100B14000222B85C7268C1B2C2F3C222BA5C7068C5
:100B2400224EC0F38130305C1C48D2B284420CBFE8
:100B340023FA02F023FA01F019224243A389296817
:100B440013F4004F14BF48008800B2FBF0F0642691
:100B5400B0FBF6F3A2891D012909120406FB110357
:100B640008D5D9003231B1FBF6F202F0070242EAAD
:100B7400050306E01A013232B2FBF6F303F00F0369
:100B84002B439BB22381A3899BB243F40053A381DB
:100B940003B0F0BD600D00080010024000380140B1
:100BA40000127A0000093D00280000200C000020FB
:100BB400F0B506464B4A4C4C936989B043F00803A0
:100BC4009361102320258DF8133004A903232046B4
:100BD4008DF81230ADF81050FFF7F6FC4FF4E13306
:100BE40025610020049304A90C23ADF81A30ADF854
:100BF4001400ADF81600ADF81800ADF81C00FFF7AE
:100C040017FF04A90120FFF713FF022004A9FFF72F
:100C14000FFF3648FFF77CFC0EB9354800E0354835
:100C2400354CFFF775FCE369990701D5334800E0BB
:100C34003348FFF76DFC334A334B106863605168E7
:100C440003F18833636001AB03C312892F481A8010
:100C5400FFF75EFCFFF72AFD041E26DD2C48FFF794
:100C640057FC002319462B4A0A25B4FBF2F606F179
:100C74003000C0B208AF02FB16440F440A263028E5
:100C840007F81C0CB2FBF6F200D113B101310133A9
:100C940001E000231946013DE7D11F48FFF738FC66
:100CA40001A8FFF735FC1D480BE0621C01D11C486C
:100CB40007E0A31C01D11B4803E003340CBF1A480E
:100CC4001A48FFF725FC0C4A136943F080031361AB
:100CD400174A137843F004031370FFF76DFC09B04F
:100CE400F0BD00BF00100240000C0140C00D000820
:100CF400E20D0008F70D0008002002409B0E0008DA
:100D0400B20E0008CC0E000823016745070E000848
:100D1400240E000800CA9A3B350E00083F0E000856
:100D2400480E00085B0E0008740E0008890E0008C7
:100D34000000002010B5431E0A44914204D011F86B
:100D4400014B03F8014FF8E710BD034602449342F8
:100D540002D003F8011BFAE7704700000048004086
:100D640000000400000C014000080000080000001E
:100D7400000C01400004000008000000003801409D
:100D840000400000000801400004000004000000CE
:100D9400000801400002000004000000004400407C
:100DA40000000200000801400800000004000000E8
:100DB4000008014004000000040000000D0A0D0AB0
:100DC4000D0A3D3D20426F6F742076312E342E3053
:100DD4002D37636464393762203D3D0A0D000A0DE6
:100DE400417070206C61756E6368206572726F72F9
:100DF400210A000A426F6F7420526571756573741D
:100E0400210A0057616974696E67202E2E2E2028EE
:100E140027612720746F2061626F7274290A0D00A4
:100E24000A0A0D446F6E650D0A204E616D653A2005
:100E3400000A0D2053697A653A20002042797465CE
:100E4400730D0A000A0A0D496D61676520746F6F9E
:100E5400206269670A0D000A0A0D5665726966699F
:100E6400636174696F6E206572726F72210A0D007E
:100E74000D0A0A41626F7274656420627920757389
:100E840065720A0D000A0D52656365697665206511
:100E940072726F720A0D000D0A1B5B33326D507251
:100EA4006F7465637465641B5B306D0D0A000D0A15
:100EB4001B5B33316D556E70726F7465637465645A
:100EC4002E1B5B306D0D0A002020202020202020C6
:020ED4002000FC
:100ED80000300008020406080000000000000000BE
:100EE800010203040607080904FFFFFF00366E012C
:100EF80000000000010203040102030406070809B8
:04000005080001DF0F
:00000001FF
